:0400000081EF0FF08D
:10100000003738392F3435362A3132332D23303DED
:101010002B456E672E204B68616C656420466172BB
:101020007261670053696D706C652043616C637514
:101030006C61746F72004D616465204279002569AE
:101040000000000E516E000E506E000E536E000E2A
:10105000526E000E4D6E000E546E4BEC11F06A0E87
:10106000156E010E166E030E176E240E186E1850B4
:10107000D8A4100E196EFDEC0DF07C6E6A0E156E84
:10108000020E166E070E176E360E186E1850D8A484
:10109000100E196EFDEC0DF07C6E6A0E156E030ECF
:1010A000166E030E176E110E186E1850D8A4100E7F
:1010B000196EFDEC0DF07C6E0B0E306E260E2F6E51
:1010C0005E0EE82EFED72F2EFCD7302EFAD76A0EF2
:1010D0000C6E010E0D6E0BEC10F07C6E000E556E5A
:1010E000310E016E060E026E03EC11F0370E016E2A
:1010F000060E026E03EC11F0000E546EAA0E096E7D
:10110000550E0A6EA4EC0BF07C6E5550D8B48BEFE4
:1011100008F08DEF08F07EEF08F02F0E5518D8B4C8
:1011200094EF08F096EF08F0B1EF08F02A0E55188A
:10113000D8B49DEF08F09FEF08F0B1EF08F02D0E46
:101140005518D8B4A6EF08F0A8EF08F0B1EF08F0F2
:101150002B0E5518D8A4AFEF08F0B1EF08F0C2EF8E
:1011600008F055C04DF06A0E156E010E166E54282B
:10117000176E55C018F099EC10F07C6E000E556E8D
:10118000D8EF08F05450310FD96EDA6A55C0DFFF3E
:10119000542A6A0E156E010E166E54C017F055C013
:1011A00018F099EC10F07C6E000E556E7EEF08F092
:1011B00054284F6E000E4E6EAA0E096E550E0A6E22
:1011C000A4EC0BF07C6E5550D8B4E9EF08F0EBEFCF
:1011D00008F0DCEF08F03D0E5518D8A4F2EF08F047
:1011E000F4EF08F001EF09F06A0E156E010E166EAD
:1011F0004F28176E55C018F099EC10F07C6E18EF60
:1012000009F04E50370FD96EDA6A55C0DFFF4F2A0A
:101210004E2A6A0E156E010E166E4FC017F055C09D
:1012200018F099EC10F07C6E000E556EDCEF08F0B3
:10123000310E076E54C008F0A3EC0EF007C050F05A
:1012400008C051F0370E076E4EC008F0A3EC0EF048
:1012500007C052F008C053F072EF09F0525050240A
:101260002B6E535051202C6E3D0E2D6E35EC10F030
:101270007C6E8FEF09F05250505C2B6E53505158DA
:101280002C6E3D0E2D6E35EC10F07C6E8FEF09F05C
:1012900050C001F051C002F052C003F053C004F03E
:1012A00017EC11F001C02BF002C02CF03D0E2D6E9A
:1012B00035EC10F07C6E8FEF09F050C001F051C09A
:1012C00002F052C003F053C004F0E0EC0EF001C095
:1012D0002BF002C02CF03D0E2D6E35EC10F07C6E24
:1012E0008FEF09F04D502F6E306A3050000AD8B49D
:1012F0007CEF09F08FEF09F02F502A0AD8B448EF9D
:1013000009F0010AD8B42EEF09F0060AD8B43BEF71
:1013100009F0020AD8B45DEF09F08FEF09F06A0E08
:10132000156E010E166E4F50020F176E3D0E186EA1
:10133000196AFDEC0DF07C6E100E306E390E2F6EBA
:101340000E0EE82EFED72F2EFCD7302EFAD767EFE1
:1013500008F000EF00F00C50D96EDA6ADFCFF6FF2C
:10136000100EF76E0800F550250AD8A4BAEF09F060
:10137000BCEF09F075EF0AF00C50D96EDA6ADF2A7B
:10138000000E716E000E706E70C074F0726873683B
:101390000C50D96EDA6ADF50106E10C0F6FF100ED6
:1013A000F76E0800F550640AD8B4D9EF09F0DBEF06
:1013B00009F0E9EF09F010C0F6FF100EF76E080013
:1013C000F550690AD8A4E7EF09F0E9EF09F06FEFEB
:1013D0000AF00D50D96EDA6A020EDF26DF5CD96E94
:1013E000DA6ADECF11F0DECF12F00C50D96EDA6A75
:1013F0001028DF6E200E156E12BE01EF0AF004EF0A
:101400000AF0010E05EF0AF0000E0F6E15061550DA
:10141000800FD96EDA6A11C001F012C002F0000E1E
:10142000046E0A0E036E50EC0DF001C007F002C00E
:1014300008F0D1EC10F00750300FDF6E11C001F052
:1014400012C002F0000E046E0A0E036E96EC0CF051
:1014500001C011F002C012F011501210D8B433EFD5
:101460000AF035EF0AF03DEF0AF01550D8A43BEF33
:101470000AF03DEF0AF006EF0AF01550D8B443EF3A
:101480000AF045EF0AF064EF0AF00F50D8B44BEFC2
:101490000AF04DEF0AF064EF0AF015061550800FC0
:1014A000D96EDA6A2D0EDF6E64EF0AF01550800FE8
:1014B000D96EDA6ADF500E6E0E50016E026A0BC0F2
:1014C00003F0A8EC0DF0152A200E1518D8A46BEF28
:1014D0000AF06DEF0AF056EF0AF086EF0AF00C50B2
:1014E000D96EDA6ADF2A86EF0AF00C50D96EDA6A12
:1014F000DFCFF6FF100EF76E0800F550016E026A9E
:101500000BC003F0A8EC0DF06FEF0AF01200010E13
:10151000076E0150D8B48FEF0AF091EF0AF0A1EFF7
:101520000AF00150D96EDA6ADF30E832E832070B90
:10153000026E070E02649FEF0AF0A1EF0AF0FAEFC5
:101540000AF01BEF0BF00150D96EDA6ADF30E83297
:10155000E832070B026E010E036E022AB2EF0AF0A8
:10156000D8900336022EB0EF0AF00350FF0A046E43
:101570000150D96EDA6ADF50070B020DF350600F8D
:10158000D96EDA6ADECF05F0DDCF06F005C0D9FFEF
:1015900006C0DAFF0450DF161AEF0BF00150D96EC7
:1015A000DA6ADF30E832E832070B026E010E036EB2
:1015B000022ADDEF0AF0D8900336022EDBEF0AF0A4
:1015C0000150D96EDA6ADF50070B020DF350600F3D
:1015D000D96EDA6ADECF04F0DDCF05F004C0D9FFA2
:1015E00005C0DAFF0350DF121AEF0BF0000E076E92
:1015F0001AEF0BF00150D96EDA6ADFBC02EF0BF084
:1016000005EF0BF0010E06EF0BF0000E026E036A01
:101610000350000AD8B40FEF0BF0F6EF0AF00250B7
:10162000000AD8B4A3EF0AF0010AD8B4CEEF0AF04A
:10163000F6EF0AF007501200010E086E0150D8B400
:1016400024EF0BF026EF0BF036EF0BF00150D96EC4
:10165000DA6ADF30E832E832070B036E070E036404
:1016600034EF0BF036EF0BF08DEF0BF0000E086E41
:10167000A2EF0BF00150D96EDA6ADF30E832E832BF
:10168000070B036E010E046E032A49EF0BF0D8908E
:101690000436032E47EF0BF00450FF0A056E01508D
:1016A000D96EDA6ADF50070B020DF350560FD96E70
:1016B000DA6ADECF06F0DDCF07F006C0D9FF07C03B
:1016C000DAFF0550DF16A2EF0BF00150D96EDA6A8F
:1016D000DF30E832E832070B036E010E046E032A96
:1016E00074EF0BF0D8900436032E72EF0BF001501C
:1016F000D96EDA6ADF50070B020DF350560FD96E20
:10170000DA6ADECF05F0DDCF06F005C0D9FF06C0EE
:10171000DAFF0450DF12A2EF0BF00250036E046AEE
:101720000450000AD8B497EF0BF036EF0BF00350DB
:10173000000AD8B43AEF0BF0010AD8B465EF0BF009
:1017400036EF0BF008501200000E0F6E000E106EF8
:10175000000E0E6E000E0D6E0950D8B4B2EF0BF0F5
:10176000B4EF0BF0BCEF0BF00A50D8A4BAEF0BF0BB
:10177000BCEF0BF0C0EF0BF0000E0C6E1FEF0CF087
:10178000000E0F6E000E0E6E09500E24016E000E3C
:10179000026E1CEC0BF00E2A030E0E64D2EF0BF05F
:1017A000D4EF0BF0C4EF0BF009500F24016E010EC3
:1017B000026E1CEC0BF00D0E0B6EFC0EE82EFED72D
:1017C0000B2EFCD7000E106E09501024040F016E72
:1017D0000D0E026E51EC0EF00C6E0D04D8A4F3EF5A
:1017E0000BF0F5EF0BF005EF0CF00F50040DF3507C
:1017F000010F10240B6E0BC0F6FF100EF76E0A508F
:10180000D96EDA6A0800F5CFDFFF102A030E1064E4
:101810000CEF0CF00EEF0CF0E4EF0BF00F2A030EC0
:101820000F6415EF0CF017EF0CF0C2EF0BF0C30EC6
:101830000B6ECD0EE82EFED70B2EFCD700000C5001
:101840001200000E116E0F50D8A429EF0CF02BEFF0
:101850000CF02FEF0CF0000E126E94EF0CF00FC096
:1018600009F0B2EC0FF0126E0F28096EB2EC0FF017
:10187000126E000E116E0F501124020F096EB2ECA1
:101880000FF0112A030E116448EF0CF04AEF0CF030
:101890003BEF0CF01A0E106EF80EE82EFED7102E4D
:1018A000FCD700D00FC00CF0380E0D6E0BEC10F012
:1018B000070E106E7D0EE82EFED7102EFCD700000E
:1018C0000FC00CF0380E0D6E0BEC10F0320EE82E3F
:1018D000FED70FC00CF0380E0D6E0BEC10F00FC0E1
:1018E0000CF0010E0D6E0BEC10F00FC00CF0020EA0
:1018F0000D6E0BEC10F00FC00CF0060E0D6E0BEC25
:1019000010F00FC00CF00C0E0D6E0BEC10F00FC0B1
:101910000CF0280E0D6E0BEC10F00FC00CF0800ECA
:101920000D6E0BEC10F0126E12501200000E066ECF
:1019300004BE9FEF0CF09DEF0CF0A5EF0CF0036CD4
:10194000041ED8B0042A010E066E02BEACEF0CF0E5
:10195000AAEF0CF0B2EF0CF0016C021ED8B0022A14
:10196000010E061A000E086E000E076E03500410DA
:10197000D8B4BDEF0CF0BFEF0CF0E7EF0CF0010EA8
:10198000056EC7EF0CF0D89003360436052A04AE76
:10199000CCEF0CF0CEEF0CF0C3EF0CF0D890073684
:1019A00008360350015C04500258D8A0DAEF0CF05E
:1019B000DCEF0CF0E1EF0CF00350015E0450025A32
:1019C0000780D89004320332052ECEEF0CF006507B
:1019D000D8B4EDEF0CF0EFEF0CF0F3EF0CF0076C78
:1019E000081ED8B0082A07C001F008C002F0120093
:1019F000010E146E0F50D8A400EF0DF002EF0DF0A1
:101A000006EF0DF0000E146E4EEF0DF0110631EFE3
:101A10000DF00FC00CF01150800F0D6E0BEC10F09C
:101A2000146E4EEF0DF00FC00CF01150C00F0D6E84
:101A30000BEC10F0146E4EEF0DF00FC00CF01150C7
:101A4000940F0D6E0BEC10F0146E4EEF0DF00FC0F6
:101A50000CF01150D40F0D6E0BEC10F0146E4EEF15
:101A60000DF01050126E136A1350000AD8B43BEFF9
:101A70000DF04EEF0DF01250010AD8B409EF0DF041
:101A8000030AD8B413EF0DF0010AD8B41DEF0DF01E
:101A9000070AD8B427EF0DF04EEF0DF014501200E6
:101AA000000E066E02BE59EF0DF057EF0DF05FEF1E
:101AB0000DF0016C021ED8B0022A010E066E04BEA3
:101AC00066EF0DF064EF0DF06AEF0DF0036C041E8D
:101AD000D8B0042A03500410D8B471EF0DF073EF9E
:101AE0000DF097EF0DF0010E056E7BEF0DF0D89025
:101AF00003360436052A04AE80EF0DF082EF0DF0B8
:101B000077EF0DF00350015C04500258D8A08BEF22
:101B10000DF08DEF0DF091EF0DF00350015E0450CC
:101B2000025AD89004320332052E82EF0DF006508F
:101B3000D8B49DEF0DF09FEF0DF0A3EF0DF0016C09
:101B4000021ED8B0022A01C001F002C002F0120049
:101B50000350D8B4AEEF0DF0B0EF0DF0B8EF0DF0CC
:101B60000350D8A4B6EF0DF0B8EF0DF0BDEF0DF0B7
:101B700001504EEC11F0FCEF0DF00350D96EDA6A13
:101B80000A0ED926DE50DE10D8B4C9EF0DF0CBEF27
:101B90000DF0E4EF0DF00350D96EDA6A0A0ED92683
:101BA0000350E16EE26A030EE126DE50E65CE65089
:101BB000800A086EDE50800A0858D8B0E2EF0DF0B7
:101BC000E4EF0DF0FCEF0DF00350D96EDA6A030E6E
:101BD000D926DF50046E0350D96EDA6ADF50042430
:101BE000D96EDA6A01C0DFFF0350D96EDA6A030EDC
:101BF000D926DE2A000EDD221200010E1A6E1550C3
:101C0000D8B405EF0EF007EF0EF010EF0EF01850FD
:101C10001910D8A40EEF0EF010EF0EF014EF0EF026
:101C2000000E1A6E4FEF0EF015C00FF016C010F038
:101C300017C011F0F8EC0CF036EF0EF015C00CF0F8
:101C400018C0F6FF19C0F7FF000EF86E0F0EF7640C
:101C500003D00800F55005D0F6CFE9FFF7CFEAFF33
:101C6000EF500D6EE1EC0FF0184A192A18C0F6FF7C
:101C700019C0F7FF000EF86E0F0EF76403D00800CE
:101C8000F55005D0F6CFE9FFF7CFEAFFEF50000996
:101C9000D8A44DEF0EF04FEF0EF01EEF0EF01A50DD
:101CA0001200010E076E0150D8B459EF0EF05BEF31
:101CB0000EF073EF0EF00250D8B461EF0EF063EF48
:101CC0000EF073EF0EF00150D96EDA6ADF30E832B1
:101CD000E832070B036E070E036471EF0EF073EF2B
:101CE0000EF077EF0EF0000E076EA1EF0EF002502F
:101CF000D96EDA6A0150E16EE26AE730E832E83222
:101D0000070B036E0150E16EE26AE750070B020D0C
:101D1000F350A00FE16EE26AE6CF04F0E5CF05F0E4
:101D200004C0E1FF05C0E2FFE750066E032A9BEF07
:101D30000EF0D8900632032E99EF0EF00650010BEC
:101D4000DF6E07501200000E0D6E000E0C6E000EBE
:101D50000F6E000E0E6EC9EF0EF00CC001F00DC03C
:101D600002F0000E046E0A0E036E17EC11F007501D
:101D70000E24D96EDA6ADF50096E09500126000E72
:101D80000222D00E01240C6EFF0E02200D6E0E4AB0
:101D90000F2A0850096E0A6A09500E5C0F50800A1B
:101DA0000B6E0A50800A0B58D8A0D9EF0EF0DBEF6B
:101DB0000EF0ADEF0EF00CC007F00DC008F01200F1
:101DC000000E066E000E056E03500410D8B4EBEF43
:101DD0000EF0EDEF0EF015EF0FF0010E076EF5EFC0
:101DE0000EF0D89003360436072A04AEFAEF0EF050
:101DF000FCEF0EF0F1EF0EF0D890053606360350EA
:101E0000015C04500258D8A008EF0FF00AEF0FF061
:101E10000FEF0FF00350015E0450025A0580D89076
:101E200004320332072EFCEF0EF005C001F006C0AD
:101E300002F012000950D8A420EF0FF022EF0FF0AB
:101E400024EF0FF04DEF0FF00950020F016E0A5012
:101E5000010B026E1CEC0BF00B6E0950030F016EB0
:101E6000D8900A30010B026E1CEC0BF00B6E09507F
:101E7000040F016E0A40E8423F0B010B026E1CEC9E
:101E80000BF00B6E0950050F016E0A38E8461F0B68
:101E9000010B026E1CEC0BF00B6E1200010E0D6EAE
:101EA000000E0F6E0C50D8A458EF0FF05AEF0FF041
:101EB0005EEF0FF0000E0D6E7FEF0FF0000E0E6E56
:101EC0000C500E24096EB2EC0FF00E2A030E0E64B5
:101ED0006CEF0FF06EEF0FF060EF0FF0000E0F6E73
:101EE0000C500F24040F096EB2EC0FF00F2A030EF2
:101EF0000F647DEF0FF07FEF0FF070EF0FF00D50DC
:101F00001200840EF66E220EF76E000EF86E00EED2
:101F1000A0F010EE12F00900F5CFEEFFE550E15011
:101F2000FAE1540EF66E220EF76E000EF86E00EE19
:101F300056F010EE1AF00900F5CFEEFFE550E15033
:101F4000FAE100EE80F0200EEE6AE806FDE100EE18
:101F500070F00C0EEE6AE806FDE1000EF86E00016E
:101F600021EF08F0010E0B6E0950D8B4BAEF0FF054
:101F7000BCEF0FF0CCEF0FF00950D96EDA6ADF300A
:101F8000E832E832070B0A6E070E0A64CAEF0FF058
:101F9000CCEF0FF0D0EF0FF0000E0B6EDFEF0FF075
:101FA00009C001F087EC0AF009C001F00950D96EB0
:101FB000DA6A000EDFBE010E026E1CEC0BF00B5055
:101FC00012000C50D8A4E7EF0FF0E9EF0FF0EDEF9F
:101FD0000FF0000E0E6E09EF10F00CC001F0010EB4
:101FE000026E1CEC0BF00E6E0CC009F00D380F0BDE
:101FF0000A6E1AEC0FF00CC009F07AEC10F00CC06D
:1020000009F00DC00AF01AEC0FF00CC009F07AECE0
:1020100010F00E5012000C50D8A411EF10F013EF76
:1020200010F017EF10F0000E0E6E33EF10F00CC032
:1020300001F0000E026E1CEC0BF00E6E0CC009F0ED
:102040000D380F0B0A6E1AEC0FF00CC009F07AEC89
:1020500010F00CC009F00DC00AF01AEC0FF00CC023
:1020600009F07AEC10F00E501200010E2E6E2D5079
:10207000D8A43DEF10F03FEF10F043EF10F0000E4A
:102080002E6E59EF10F02DC001F0000E036E000E01
:10209000026E000E056E0B0E046EEBEC10F02DC000
:1020A0001AF03E0E1B6E2BC01CF02CC01DF0B7ECBE
:1020B00010F02E50120017C019F067EF10F016C084
:1020C0000BF0190E0C6E18C00DF0ABEC09F019C036
:1020D000F6FF100EF76E0800F5500009D8A473EF54
:1020E00010F075EF10F05FEF10F0000E176E000E9D
:1020F000166E12000950D8A480EF10F082EF10F095
:1021000084EF10F098EF10F00928016E010E026EB6
:102110001CEC0BF0070E0A6E7D0EE82EFED70A2E81
:10212000FCD700000928016E000E026E1CEC0BF0BB
:1021300012001550D8A49FEF10F0A1EF10F0A5EFFA
:1021400010F0000E196EB5EF10F015C00FF016C0AC
:1021500010F017C011F0F8EC0CF0196E15C00CF06F
:1021600018C00DF0E1EC0FF0196E195012001C0EA2
:102170001E6E1AC01FF0000E236E000E226E000E9F
:102180002A6E000E296E1F0E166E1BC017F01E0E53
:10219000186E5BEC10F01A502224D96EDA6ADF6AEE
:1021A000120008BED6EF10F0D8EF10F0DEEF10F0FE
:1021B00007C007F008C008F0EAEF10F007C009F008
:1021C00008C00AF0091E0A1E094A0A2A09C007F0B7
:1021D0000AC008F0120001C006F0F5EF10F006503A
:1021E000D96EDA6A02C0DFFF062A0406D8A0050607
:1021F000042806E10528D8A400EF11F002EF11F041
:10220000EFEF10F01200000E036E0DEF11F0015011
:102210000324D96EDA6ADF6A032A0250035CD8A06D
:1022200014EF11F016EF11F007EF11F0120001504A
:102230000302F3CF05F0F4CF06F001500402F3508F
:10224000062602500302F350062605C001F006C020
:1022500002F01200890F8A0F8B0F8C0F8D0F920FD7
:10226000930F940F950F960F020A121A222A6A0EE4
:102270000F6E21EC0CF07C6EAA0E0C6E4EEC0FF083
:102280007C6E1200800F810F820F830F840F030B6F
:0E229000131B636B737B37EC11F0120012000E
:020000040030CA
:0E000000FF02091EFF8181FF0FC00FE00F40BD
:00000001FF
